:020000001628C0
:0E0006008312031329088A00280882000800CC
:1000140003208A110A128000840AA80A0319A90A73
:08002400F003031D0A28080087
:10002C00233083120313A000A1011530A200A301F9
:10003C000130A400A501A601A70183168601870142
:10004C006030880083128601870188172608F0002B
:10005C002708F100F00DF10D70107008203E84009F
:10006C00000886000630FB001330FC00AD30FD00AC
:10007C00FD0B3E28FC0B3E28FB0B3E28000000002D
:10008C00881F9D28081B4B28881300302706031D4A
:10009C00512800302606031D5C28213087000608F5
:1000AC00033C031C5B281130870064280C3087004C
:1000BC000608033C031C64280A3087000603F00082
:1000CC00700886000630FB001330FC00AD30FD00DC
:1000DC00FD0B6E28FC0B6E28FB0B6E28000000003D
:1000EC000608003A031D7B289D280F300605F000FA
:1000FC00031D9C2810308602861586198728061049
:10010C0088280614061106198D2886108E28861448
:10011C000630FB001330FC00AD30FD00FD0B9428C5
:10012C00FC0B9428FB0B9428000000004628081BAD
:10013C00DF288813881EC12800302506031DA82837
:10014C0001302406031DBE28123087000B30FB0043
:10015C002630FC005D30FD00FD0BB228FC0BB228F4
:10016C00FB0BB228000000000130A402031CA50305
:10017C0021308700DE2800302506031DC7280030FB
:10018C002406031DDC28123087000B30FB002630C0
:10019C00FC005D30FD00FD0BD128FC0BD128FB0BC6
:1001AC00D12800000000A40A0319A50A0C3087000E
:1001BC00E028881700302706031DE62800302606A5
:1001CC00031DED280130A6000030A700EF28A60182
:0601DC00A7012C28F02809
:02400E004A2F37
:00000001FF
